:100000000C945D000C940B0A0C940B0A0C940B0AD4
:100010000C940B0A0C940B0A0C940B0A0C940B0A0C
:100020000C940B0A0C940B0A0C940B0A0C949D0470
:100030000C940B0A0C940B0A0C940B0A0C940B0AEC
:100040000C940B0A0C940B0A0C9408070C947C0873
:100050000C94C8080C940B0A0C940B0A0C940B0A11
:100060000C940B0A0C940B0A0C940B0A0C940B0ABC
:100070000C940B0A0C940B0A0C940B0A0C940B0AAC
:100080000C940B0A0C940B0A0C940B0A0C940B0A9C
:100090000C940B0A0C940B0A0C940B0A0C940B0A8C
:1000A0000C940B0A0C940B0A0C940B0A0C940B0A7C
:1000B0000C940B0A0100017A800011241FBECFEFBF
:1000C000D8E0DEBFCDBFE4EBF0E040E017C0B59173
:1000D000A59135912591059107FD0CC095918591CC
:1000E000EF01F92FE82F05900D92A217B307D9F76A
:1000F000FE0104C01D92A217B307E1F7E93BF40724
:0E01000031F70E9460030C948500F894FFCF45
:10010E000A0D2D2D2D2D2D2D2D2D2D2D2D2D2D2D54
:10011E002D2D2D2D2D2D2D2D2D2D2D2D2D2D2D2D01
:10012E002D2D2D2D2D2D2D2D2D2D2D2D2D2D2D2DF1
:10013E002D2D2D2D2D2D2D2D2D2D2D2D2D2D2D2DE1
:10014E000A0D41746D656C20415652343436202DA3
:10015E00204C696E65617220737065656420636FF3
:10016E006E74726F6C206F6620737465707065723A
:10017E00206D6F746F720A0D0A0D3F202020202013
:10018E002020202D2053686F772068656C700A0D33
:10019E0061205B646174615D202D20536574206164
:1001AE006363656C65726174696F6E202872616E2F
:1001BE0067653A203731202D203332303030290A0E
:1001CE000D64205B646174615D202D205365742085
:1001DE00646563656C65726174696F6E2028726107
:1001EE006E67653A203731202D203332303030297A
:1001FE000A0D73205B646174615D202D205365745C
:10020E00207370656564202872616E67653A2031CF
:10021E0032202D206D6F746F72206C696D69742998
:10022E000A0D6D205B646174615D202D204D6F762B
:10023E0065205B646174615D207374657073202842
:10024E0072616E67653A202D3634303030202D20A5
:10025E003634303030290A0D6D6F7665205B73743D
:10026E006570735D205B616363656C5D205B6465C7
:10027E0063656C5D205B73706565645D0A0D20209F
:10028E00202020202020202D204D6F76652077699C
:10029E00746820616C6C20706172616D657465723A
:1002AE007320676976656E0A0D3C656E7465723EE5
:1002BE0020202D20526570656174206C617374204E
:1002CE006D6F76650A0D0A0D202020206163632F65
:1002DE00646563206461746120676976656E206968
:1002EE006E20302E30312A7261642F7365635E3258
:1002FE002028313030203D2031207261642F73650B
:10030E00635E32290A0D20202020737065656420FB
:10031E006461746120676976656E20696E20302E87
:10032E0030312A7261642F7365632028313030209A
:10033E003D2031207261642F736563290A0D2D2DC6
:10034E002D2D2D2D2D2D2D2D2D2D2D2D2D2D2D2DCF
:10035E002D2D2D2D2D2D2D2D2D2D2D2D2D2D2D2DBF
:10036E002D2D2D2D2D2D2D2D2D2D2D2D2D2D2D2DAF
:0F037E002D2D2D2D2D2D2D2D2D2D2D2D0A0D003D
:10038D000A0D20204D6F746F7220706F733A20002C
:10039D0020202020613A002020643A002020733A6A
:1003AD000020206D3A000A0D3E20000A0D000A0DB6
:1003BD0020200052756E6E696E672E2E2E004F4BEB
:0303CD000A0D0016
:0B03D000303132333435363738390015
:0803DB00080A020604050109ED
:1003E4002F923F924F925F926F927F928F92AF9231
:1003F400BF92CF92DF92EF920F931F93CF93DF932D
:1004040000D000D000D0CDB7DEB73B01882E5A0112
:1004140019014115510521F0FA016083718382832A
:100424002114310429F0C1010297839708F01AC1FD
:10043400E82C6301FFEFCF1ADF0AEF0AF3011491EE
:1004440087FC1081812F90E00E94D8094C2D3D2D0E
:100454002E2D892B19F036018E2CEACF1D3269F42A
:10046400E82C630152E0C50ED11CE11CE42FF32FEC
:10047400149127FD108101E00EC01B3259F4E82CC1
:10048400630182E0C80ED11CE11CE42FF32F149108
:1004940027FD108100E02114310409F190E12916AF
:1004A400310429F43FC010E32114310421F1F8E0B0
:1004B4002F16310401F154F432E02316310421F5EE
:1004C400412C512C612C50E4752E4BC04AE024166B
:1004D400310439F050E125163104B1F43DC0103334
:1004E40019F13AE0232E312C4CEC442E542C642C7C
:1004F4004CE0742E36C098E0292E312C412C512C1E
:10050400612C20E1722E2DC060E070E080E090E864
:100514009101032C000C440B550B0E94A6082901E1
:100524003A011FC01033C1F4F6018491E7FC8081C5
:100534008F7D883509F0B7CFAE2DC6010196A11D78
:10054400FC011491A7FD1081E2E0CE0ED11CE11C48
:10055400026060E1262E312C412C512C612C88E064
:10056400782EA0E060E070E0CB019101032C000C38
:10057400440B550B29833A834B835C83E0EDE10FF5
:10058400EA3060F02FEB210F2A3110F4E9EC05C0BA
:100594002FE9210F2A3150F5E9EAE10F2E2F30E03F
:1005A400221533051CF5A7FD18C046165706680624
:1005B400790680F029813A814B815C810E949409FB
:1005C4006E0F711D811D911D61307105810530E82B
:1005D400930710F0AFEF01C0A1E0F6011491E7FC1E
:1005E40010814FEFC41AD40AE40AC8CF202F217017
:1005F400A114B104B1F0AA2349F051E0C51AD108FD
:10060400E108F501C082D182E2820BC001FF1DC066
:10061400F2E0CF1AD108E108F501C082D182E2826A
:1006240014C0A7FF12C0222329F060E070E080E02C
:1006340090E804C06FEF7FEF8FEF9FE722E230E096
:1006440030932D0120932C0109C0222381F0909531
:100654008095709561957F4F8F4F9F4F462F372F11
:10066400282F12C040E030E020E090E00DC097FF5A
:10067400F5CF82E290E090932D0180932C016FEFEF
:100684007FEF8FEF9FE7EACF642F732F822F269699
:100694000FB6F894DEBF0FBECDBFDF91CF911F918F
:1006A4000F91EF90DF90CF90BF90AF908F907F909D
:0C06B4006F905F904F903F902F90089542
:1006C0000E94B30985B1816085B968EB73E080E071
:1006D0000E94E6080E94010908EE13E020E233E0E0
:1006E00044E650E064E670E080916E0190916F0105
:1006F0000E94080885B18E7F85B9C0E00F2EF0E218
:10070000AF2EF3E0BF2EF02D0F2EF4E6CF2ED12C1E
:10071000F02D0F2EF4E64F2E512CF02D0F2EF8EE6B
:10072000EF2EF3E0FF2EF02D8091760181FFFCCFBC
:1007300080910C018D3609F08DC080910D018032C1
:10074000C1F46CE071E0CB01A0E8BC018A2F6E5FC0
:100750007F4F8F4F0E94040A7C019501A601B201D0
:100760000E94D4056BEB73E080E00E94E608C1E0D4
:10077000BCC08F3609F0B9C080910E01863709F0F0
:10078000B4C080910F01853609F0AFC0809110018F
:10079000803209F0AAC08CE091E03C0120E8822E72
:1007A000882DB3016B5F7F4F8F4F0E94040A7C013D
:1007B00086E090E001C00196FC01E45FFE4F2081DD
:1007C000203211F02D30B9F7EC012196882DB301BC
:1007D0006C0F7D1F811DD7FD8A950E94040A2C0194
:1007E00001C02196FE01E45FFE4F8081803211F04E
:1007F0008D30B9F72196882DB3016C0F7D1F811DB7
:10080000D7FD8A950E94040A6C0101C02196FE0161
:10081000E45FFE4F8081803211F08D30B9F75E01C8
:100820008FEFA81AB80A882DB3016A0D7B1D811DB0
:10083000B7FC8A950E94040A5C019C01A601B201E2
:10084000C7010E94D4056BEB73E080E00E94E608CC
:10085000C1E04BC0813699F480910D01803209F0DE
:1008600044C06CE071E0CB01A0E8BC018A2F6E5F50
:100870007F4F8F4F0E94040A2C01C1E036C084369E
:1008800091F480910D01803281F56CE071E0CB0133
:10089000A0E8BC018A2F6E5F7F4F8F4F0E94040A31
:1008A0006C01C1E022C0833789F480910D01803250
:1008B000E1F48CE091E0A0E8BC018A2F6E5F7F4FED
:1008C0008F4F0E94040A5C01C1E00FC08D3041F4DB
:1008D0009501A601B201C7010E94D405C1E005C07F
:1008E0008F3319F40E940109C1E0C13011F00E9458
:1008F0000109809176018D7F809376010E94FF0926
:100900008091760180FF0EC060EC73E080E00E9471
:10091000E6088091760180FDFCCF6BEC73E080E00F
:100920000E94E60887019501A601B20180916E013F
:0A09300090916F010E940808F7CEB5
:10093A001F920F920FB60F921124EF92FF920F930C
:10094A001F932F933F934F935F936F937F938F934D
:10095A009F93AF93BF93CF93DF93EF93FF9395B199
:10096A0080E2892785B9E0E0F1E081819281909364
:10097A00890080938800808187708130E9F038F09F
:10098A00823009F4A8C0833009F47EC0EBC010920B
:10099A007501109274011092730110927201E1E8CC
:1009AA00F0E08081887F8083809176018E7F8093BA
:1009BA007601A0E0B0E0D8C000E011E0F801808143
:1009CA0083FB882780F90E944E08E0907401F0901A
:1009DA007501FFEFEF1AFF0AF0927501E0927401B8
:1009EA00F801218532852F5F3F4F32872187C181E8
:1009FA00D281CE01A0E0B0E0880F991FAA1FBB1FC9
:100A0A004091720150917301BC01CD01640F751FB1
:100A1A00811D911D220F331F220F331F2F5F3F4F5E
:100A2A00032E000C440B550B0E941909DE01A21B70
:100A3A00B30B7093730160937201F80123813481BF
:100A4A00E216F30648F02581368132872187208114
:100A5A00287F2260208388C02091070130910801F5
:100A6A002A173B0708F480C0B0937101A093700164
:100A7A001092730110927201E0E0F1E08081887FA8
:100A8A0083608083D90170C0C0E0D1E0888183FB94
:100A9A00882780F90E944E082091740130917501CF
:100AAA002F5F3F4F3093750120937401AF81B88552
:100ABA004B815C812417350708F456C08D819E81CD
:100ACA009A878987A0917001B09171012881287F46
:100ADA002260288349C0C0E0D1E0888183FB88274F
:100AEA0080F90E944E0880917401909175010196D7
:100AFA00909375018093740109851A850F5F1F4FC2
:100B0A001A8709870980DA81C02DCE01A0E0B0E0FA
:100B1A00880F991FAA1FBB1F209172013091730180
:100B2A00BC01CD01620F731F811D911D9801220F17
:100B3A00331F220F331F2F5F3F4F032E000C440B2E
:100B4A00550B0E941909DE01A21BB30B70937301A6
:100B5A0060937201112344F0E0E0F1E02081287FE4
:100B6A00208302C0A0E0B0E0B0930201A09301018B
:100B7A00FF91EF91DF91CF91BF91AF919F918F91AB
:100B8A007F916F915F914F913F912F911F910F919B
:0E0B9A00FF90EF900F900FBE0F901F901895D8
:100BA8002F923F926F927F928F929F92AF92BF92B5
:100BB800CF92DF92EF92FF920F931F93CF93DF9321
:100BC800CDB7DEB728970FB6F894DEBF0FBECDBFFE
:100BD8008C011B013A0199234CF4E0E0F1E080819B
:100BE8008860808311950195110905C0E0E0F1E066
:100BF8008081877F808301301105F9F4E0E0F1E01E
:100C08008FEF9FEF928781878081887F82608083C2
:100C180088EE93E09283818380917601816080934E
:100C280076018AE090E09093890080938800E1E85B
:100C3800F0E0808183608083D0C00115110509F43C
:100C4800CCC06901E12CF12C6FE17BE08BE090E0F6
:100C5800A70196010E94190949015A013093080118
:100C680020930701C101A0E0B0E089839A83AB8398
:100C7800BC8360EA7FEA89EB92E129813A814B8162
:100C88005C810E941909CA01B9010E94BC079B0135
:100C9800AC01AAE2BCE00E94CD0924E630E040E0C5
:100CA80050E00E94A6083E832D83309302012093D2
:100CB8000101A7019601C701B6010E9494096B01C1
:100CC8007C01AAE3B1E029813A814B815C810E94D1
:100CD800CD0924E630E040E050E00E941909C70140
:100CE800B6010E94190938872F83D901AB2B21F44B
:100CF80081E090E098878F836301E12CF12CD80183
:100D0800A70196010E94E9099101260D371D40E0CF
:100D180050E00E9419092115310511F421E030E055
:100D2800AF81B885A217B30738F0201B310B309379
:100D380006012093050117C0AF81B88529813A8142
:100D48004B815C810E94CD09909580957095619545
:100D58007F4F8F4F9F4FA70196010E94190930932B
:100D68000601209305018091050190910601892BC8
:100D780031F48FEF9FEF9093060180930501E0E037
:100D8800F1E085819681080F191F148303838D81F3
:100D98009E818816990638F0928281828081887FA8
:100DA8008360808306C0E0E0F1E08081887F816015
:100DB800808310920A011092090180917601816066
:100DC800809376018AE090E0909389008093880070
:100DD800E1E8F0E080818360808328960FB6F8947C
:100DE800DEBF0FBECDBFDF91CF911F910F91FF9056
:100DF800EF90DF90CF90BF90AF909F908F907F90B3
:080E08006F903F902F900895B8
:100E10001F920F920FB60F9211242F933F934F936F
:100E20005F936F937F938F939F93AF93BF93CF9372
:100E3000EF93FF93C091C6008091760180FD3DC085
:100E4000C830B9F480910B018823B9F188E00E9481
:100E5000460980E20E94460988E00E944609E09126
:100E60000B01E150E0930B01F0E0E45FFE4F1082D4
:100E700024C0E0910B01EF3170F48E2F90E0DC0183
:100E8000A45FBE4FCC93DC01A35FBE4F1C92EF5F0B
:100E9000E0930B0107C0F0E0E55FFE4FC08388E000
:100EA0000E944609CD3031F48091760182608093B2
:100EB000760103C08C2F0E944609FF91EF91CF91DC
:100EC000BF91AF919F918F917F916F915F914F9162
:0E0ED0003F912F910F900FBE0F901F9018951D
:100EDE00EF92FF920F931F93CF93DF938C01992381
:100EEE0034F41195019511098DE20E944609C0E175
:100EFE00D7E20CC09E01ADECBCEC0E94A409EC0143
:100F0E00D695C795D695C795D695C795C230D105B6
:100F1E0018F00C171D0770F3C801BE010E945B0983
:100F2E00E82EF92ECB01770FAA0B80539C4FAF4FB3
:100F3E00FC018491A7FD80810E9446090E2D1F2D74
:100F4E009E01ADECBCEC0E94A409EC01D695C795B0
:100F5E00D695C795D695C7952097F1F6DF91CF9187
:0A0F6E001F910F91FF90EF9008957E
:100F7800CF92DF92EF92FF920F931F936B017C0148
:100F880080E090E0A0E0B0E440E050E0BA018A01DF
:100F98009B01080F191F2A1F3B1FC016D106E20626
:100FA800F30630F0C01AD10AE20AF30A21E001C0C0
:100FB80020E07695679557954795222321F0480FAD
:100FC800591F6A1F7B1FB695A79597958795B69564
:100FD800A795979587950097A105B105C1F64C157A
:100FE8005D056E057F0538F4CB01BA016F5F7F4F51
:100FF8008F4F9F4F02C0CB01BA011F910F91FF90F5
:08100800EF90DF90CF900895F6
:10101000AF92BF92CF92DF92EF92FF920F931F9306
:10102000CF93DF935C016B017A01E9016DE873E016
:1010300080E00E94E608C5010E946F076DE973E039
:1010400080E00E94E608C6010E946F0764EA73E030
:1010500080E00E94E608C7010E946F0769EA73E01A
:1010600080E00E94E608CE010E946F076EEA73E0FE
:1010700080E00E94E608C8010E946F0763EB73E0FE
:1010800080E00E94E608DF91CF911F910F91FF90C1
:0C109000EF90DF90CF90BF90AF900895DC
:10109C00813059F420916E0130916F01215031094A
:1010AC0030936F0120936E010AC020916E01309134
:1010BC006F012F5F3F4F30936F0120936E01882398
:1010CC0031F0809177018F5F8093770105C080911B
:1010DC00770181508093770180917701877080939D
:0C10EC0077010E9430098091770108957F
:1010F8001F920F920FB60F9211248F939F93EF9325
:10110800FF939091780180917901981769F0E091A7
:101118007801EF5FEF73E0937801F0E0E25DFE4F56
:1011280080818093C60005C0E1ECF0E080818F7D6E
:101138008083FF91EF919F918F910F900FBE0F9039
:041148001F90189547
:10114C00A1E21A2EAA1BBB1BFD010DC0AA1FBB1FBF
:10115C00EE1FFF1FA217B307E407F50720F0A21B31
:10116C00B30BE40BF50B661F771F881F991F1A949E
:10117C0069F760957095809590959B01AC01BD01C8
:04118C00CF010895F2
:101190001F920F920FB60F9211248F939F93CF93AC
:1011A000DF9300D0CDB7DEB71A82198289819A8188
:1011B00001969A8389830F900F90DF91CF919F9131
:0C11C0008F910F900FBE0F901F9018959C
:1011CC00CF92DF92EF92CF936B01E82EC0E003C079
:1011DC00CF5F0E944609AE2DC6018C0F911DA11D3B
:1011EC00FC018491A7FD80818111F2CFCF91EF900A
:0611FC00DF90CF90089582
:10120200CF93DF93C0E0D0E003C021960E9446094D
:10121200CE010D2E000CAA0B825F9E4FAF4FFC0138
:101222008491A7FD80818111F0CFDF91CF91089544
:10123200052E97FB1EF400940E94E10957FD07D08A
:101242000E94A60807FC03D04EF40C94E1095095C5
:0E1252004095309521953F4F4F4F5F4F0895C7
:1012600090E0A0E085529C4FAF4FFC018491A7FD18
:1012700080812BB130E1839FC0011124922F982BE4
:0C1280009BB99BB18F6089238BB9089546
:10128C00209179012F5F2F73909178012917E1F349
:10129C00E22FF0E0E25DFE4F808320937901E1ECD8
:0A12AC00F0E08081806280830895E5
:1012B600AA1BBB1B51E107C0AA1FBB1FA617B70776
:1012C60010F0A61BB70B881F991F5A95A9F7809592
:0812D6009095BC01CD010895C3
:1012DE001F920F920FB60F921124CF93DF931F928E
:1012EE00CDB7DEB7198289818F5F898389818F3F60
:0612FE00D1F71982F8CFC0
:101304001092C50083E38093C40088ED8093C100EC
:1013140086E08093C20010920B0110927801109223
:0413240079010895AE
:10132800DB018F939F930E94CD09BF91AF91A29F3C
:10133800800D911DA39F900DB29F900D11240895CB
:10134800A29FB001B39FC001A39F700D811D1124FE
:0E135800911DB29F700D811D1124911D0895ED
:101366000E94F1098FEF85B984B90E94820980E055
:0C1376000E9430090E94C109789408957B
:10138200E0E0F1E08081887F808388E080938100C3
:0813920082E080936F000895D2
:10139A000E94A409A59F900DB49F900DA49F800D53
:0613AA00911D11240895BD
:1013B00091110C94080A803219F089508550C8F7B1
:0213C00008958E
:1013C20090958095709561957F4F8F4F9F4F0895AF
:1013D200B7FF0C94CD090E94CD09821B930B08958F
:0E13E2008BB18F708BB98AB1806F8AB9089574
:0E13F0002AE030E040E050E00E94F201089553
:0A13FE0010920B0110920C010895EB
:081408000E94F809CB010895D0
:06141000992788270895CA
:041416000C946F09BA
:00000001FF
